:020000020000fc
:0100000000ff
:0100010000fe
:0100020003fa
:0100030000fc
:0100040001fa
:0100050001f9
:0100060003f6
:0100070000f8
:0100080002f5
:0100090003f3
:01000a0001f4
:01000b0000f4
:01000c0003f0
:01000d0003ef
:01000e0001f0
:01000f0001ef
:0100100000ef
:0100110003eb
:0100120001ec
:0100130002ea
:0100140000eb
:0100150000ea
:0100160001e8
:0100170000e8
:0100180000e7
:0100190001e5
:01001a0001e4
:01001b0000e4
:01001c0000e3
:01001d0000e2
:01001e0001e0
:01001f0003dd
:0100200000df
:0100210003db
:0100220001dc
:0100230001db
:0100240003d8
:0100250000da
:0100260003d6
:0100270002d6
:0100280002d5
:0100290002d4
:01002a0001d4
:01002b0000d4
:01002c0003d0
:01002d0001d1
:01002e0003ce
:01002f0000d0
:0100300003cc
:0100310002cc
:0100320002cb
:0100330002ca
:0100340000cb
:0100350003c7
:0100360001c8
:0100370001c7
:0100380002c5
:0100390001c5
:01003a0000c5
:01003b0000c4
:01003c0001c2
:01003d0002c0
:01003e0003be
:01003f0001bf
:0100400002bd
:0100410000be
:0100420001bc
:0100430001bb
:0100440003b8
:0100450002b8
:0100460003b6
:0100470002b6
:0100480002b5
:0100490002b4
:01004a0001b4
:01004b0000b4
:01004c0000b3
:01004d0000b2
:01004e0003ae
:01004f0000b0
:0100500002ad
:0100510001ad
:0100520000ad
:0100530000ac
:0100540003a8
:0100550003a7
:0100560000a9
:0100570002a6
:0100580000a7
:0100590002a4
:01005a0000a5
:01005b0003a1
:01005c0002a1
:01005d0000a2
:01005e00029f
:01005f0000a0
:01006000039c
:01006100019d
:01006200029b
:01006300019b
:010064000299
:010065000298
:010066000297
:010067000296
:010068000295
:010069000096
:01006a000392
:01006b000391
:01006c000192
:01006d000290
:01006e000190
:01006f00038d
:01007000018e
:01007100018d
:01007200028b
:010073000389
:01007400008b
:010075000288
:010076000089
:010077000088
:010078000087
:010079000086
:01007a000283
:01007b000183
:01007c000083
:01007d000181
:01007e000081
:01007f00027e
:01008000027d
:01008100017d
:01008200017c
:01008300017b
:010084000378
:010085000278
:010086000079
:010087000375
:010088000077
:010089000373
:01008a000075
:01008b000371
:01008c000370
:01008d000270
:01008e00036e
:01008f00026e
:01009000036c
:01009100016d
:01009200036a
:01009300026a
:01009400016a
:010095000367
:010096000168
:010097000167
:010098000166
:010099000363
:01009a000164
:01009b000163
:01009c000063
:01009d000260
:01009e000160
:01009f00015f
:0100a000035c
:0100a100005e
:0100a200015c
:0100a300025a
:0100a4000358
:0100a5000159
:0100a6000356
:0100a7000157
:0100a8000156
:0100a9000254
:0100aa000352
:0100ab000054
:0100ac000251
:0100ad000250
:0100ae000150
:0100af00034d
:0100b000034c
:0100b100024c
:0100b200034a
:0100b300014b
:0100b4000249
:0100b500004a
:0100b6000346
:0100b7000345
:0100b8000245
:0100b9000145
:0100ba000144
:0100bb000044
:0100bc000043
:0100bd000042
:0100be000041
:0100bf00013f
:0100c000003f
:0100c100023c
:0100c200023b
:0100c3000339
:0100c400003b
:0100c5000337
:0100c6000039
:0100c7000137
:0100c8000334
:0100c9000135
:0100ca000035
:0100cb000133
:0100cc000033
:0100cd000032
:0100ce00032e
:0100cf000030
:0100d000022d
:0100d100012d
:0100d200002d
:0100d300002c
:0100d400002b
:0100d5000129
:0100d6000128
:0100d7000226
:0100d8000225
:0100d9000323
:0100da000322
:0100db000222
:0100dc000221
:0100dd000220
:0100de000120
:0100df00021e
:0100e000021d
:0100e100001e
:0100e200021b
:0100e300001c
:0100e400001b
:0100e5000218
:0100e6000316
:0100e7000117
:0100e8000017
:0100e9000016
:0100ea000015
:0100eb000311
:0100ec000211
:0100ed00030f
:0100ee000110
:0100ef00010f
:0100f000030c
:0100f100030b
:0100f200010c
:0100f3000309
:0100f4000308
:0100f5000208
:0100f6000108
:0100f7000206
:0100f8000304
:0100f9000006
:0100fa000104
:0100fb000202
:0100fc000300
:0100fd0003ff
:0100fe0003fe
:0100ff0003fd
:00000001FF
